{"abi":[{"type":"constructor","inputs":[{"name":"_royaltyPercentage","type":"uint256","internalType":"uint256"},{"name":"_multisigWallet","type":"address","internalType":"address"}],"stateMutability":"nonpayable"},{"type":"function","name":"APPROVER_ROLE","inputs":[],"outputs":[{"name":"","type":"bytes32","internalType":"bytes32"}],"stateMutability":"view"},{"type":"function","name":"DEFAULT_ADMIN_ROLE","inputs":[],"outputs":[{"name":"","type":"bytes32","internalType":"bytes32"}],"stateMutability":"view"},{"type":"function","name":"addApprover","inputs":[{"name":"approver","type":"address","internalType":"address"}],"outputs":[],"stateMutability":"nonpayable"},{"type":"function","name":"eip712Domain","inputs":[],"outputs":[{"name":"fields","type":"bytes1","internalType":"bytes1"},{"name":"name","type":"string","internalType":"string"},{"name":"version","type":"string","internalType":"string"},{"name":"chainId","type":"uint256","internalType":"uint256"},{"name":"verifyingContract","type":"address","internalType":"address"},{"name":"salt","type":"bytes32","internalType":"bytes32"},{"name":"extensions","type":"uint256[]","internalType":"uint256[]"}],"stateMutability":"view"},{"type":"function","name":"getRoleAdmin","inputs":[{"name":"role","type":"bytes32","internalType":"bytes32"}],"outputs":[{"name":"","type":"bytes32","internalType":"bytes32"}],"stateMutability":"view"},{"type":"function","name":"getTypedDataV4Hash","inputs":[{"name":"structHash","type":"bytes32","internalType":"bytes32"}],"outputs":[{"name":"","type":"bytes32","internalType":"bytes32"}],"stateMutability":"view"},{"type":"function","name":"grantRole","inputs":[{"name":"role","type":"bytes32","internalType":"bytes32"},{"name":"account","type":"address","internalType":"address"}],"outputs":[],"stateMutability":"nonpayable"},{"type":"function","name":"hasRole","inputs":[{"name":"role","type":"bytes32","internalType":"bytes32"},{"name":"account","type":"address","internalType":"address"}],"outputs":[{"name":"","type":"bool","internalType":"bool"}],"stateMutability":"view"},{"type":"function","name":"multisigWallet","inputs":[],"outputs":[{"name":"","type":"address","internalType":"address"}],"stateMutability":"view"},{"type":"function","name":"processedPayments","inputs":[{"name":"","type":"string","internalType":"string"}],"outputs":[{"name":"","type":"bool","internalType":"bool"}],"stateMutability":"view"},{"type":"function","name":"receiveERC20Payment","inputs":[{"name":"token","type":"address","internalType":"contract IERC20"},{"name":"request","type":"tuple","internalType":"struct KBPaymentProcessor.PaymentRequest","components":[{"name":"paymentId","type":"string","internalType":"string"},{"name":"amount","type":"uint256","internalType":"uint256"},{"name":"payer","type":"address","internalType":"address"},{"name":"merchantAddress","type":"address","internalType":"address"}]},{"name":"signature","type":"bytes","internalType":"bytes"}],"outputs":[],"stateMutability":"nonpayable"},{"type":"function","name":"removeApprover","inputs":[{"name":"approver","type":"address","internalType":"address"}],"outputs":[],"stateMutability":"nonpayable"},{"type":"function","name":"renounceRole","inputs":[{"name":"role","type":"bytes32","internalType":"bytes32"},{"name":"callerConfirmation","type":"address","internalType":"address"}],"outputs":[],"stateMutability":"nonpayable"},{"type":"function","name":"revokeRole","inputs":[{"name":"role","type":"bytes32","internalType":"bytes32"},{"name":"account","type":"address","internalType":"address"}],"outputs":[],"stateMutability":"nonpayable"},{"type":"function","name":"royaltyPercentage","inputs":[],"outputs":[{"name":"","type":"uint256","internalType":"uint256"}],"stateMutability":"view"},{"type":"function","name":"setMultisigWallet","inputs":[{"name":"newMultisigWallet","type":"address","internalType":"address"}],"outputs":[],"stateMutability":"nonpayable"},{"type":"function","name":"setRoyaltyPercentage","inputs":[{"name":"newRoyaltyPercentage","type":"uint256","internalType":"uint256"}],"outputs":[],"stateMutability":"nonpayable"},{"type":"function","name":"supportsInterface","inputs":[{"name":"interfaceId","type":"bytes4","internalType":"bytes4"}],"outputs":[{"name":"","type":"bool","internalType":"bool"}],"stateMutability":"view"},{"type":"event","name":"EIP712DomainChanged","inputs":[],"anonymous":false},{"type":"event","name":"ERC20PaymentReceived","inputs":[{"name":"token","type":"address","indexed":true,"internalType":"address"},{"name":"from","type":"address","indexed":true,"internalType":"address"},{"name":"amount","type":"uint256","indexed":false,"internalType":"uint256"},{"name":"paymentId","type":"string","indexed":false,"internalType":"string"},{"name":"merchant","type":"address","indexed":false,"internalType":"address"},{"name":"royaltyAmount","type":"uint256","indexed":false,"internalType":"uint256"}],"anonymous":false},{"type":"event","name":"RoleAdminChanged","inputs":[{"name":"role","type":"bytes32","indexed":true,"internalType":"bytes32"},{"name":"previousAdminRole","type":"bytes32","indexed":true,"internalType":"bytes32"},{"name":"newAdminRole","type":"bytes32","indexed":true,"internalType":"bytes32"}],"anonymous":false},{"type":"event","name":"RoleGranted","inputs":[{"name":"role","type":"bytes32","indexed":true,"internalType":"bytes32"},{"name":"account","type":"address","indexed":true,"internalType":"address"},{"name":"sender","type":"address","indexed":true,"internalType":"address"}],"anonymous":false},{"type":"event","name":"RoleRevoked","inputs":[{"name":"role","type":"bytes32","indexed":true,"internalType":"bytes32"},{"name":"account","type":"address","indexed":true,"internalType":"address"},{"name":"sender","type":"address","indexed":true,"internalType":"address"}],"anonymous":false},{"type":"error","name":"AccessControlBadConfirmation","inputs":[]},{"type":"error","name":"AccessControlUnauthorizedAccount","inputs":[{"name":"account","type":"address","internalType":"address"},{"name":"neededRole","type":"bytes32","internalType":"bytes32"}]},{"type":"error","name":"ECDSAInvalidSignature","inputs":[]},{"type":"error","name":"ECDSAInvalidSignatureLength","inputs":[{"name":"length","type":"uint256","internalType":"uint256"}]},{"type":"error","name":"ECDSAInvalidSignatureS","inputs":[{"name":"s","type":"bytes32","internalType":"bytes32"}]},{"type":"error","name":"InvalidShortString","inputs":[]},{"type":"error","name":"StringTooLong","inputs":[{"name":"str","type":"string","internalType":"string"}]}],"bytecode":{"object":"0x61016060405234801561001157600080fd5b50604051611a01380380611a01833981016040819052610030916102fc565b6040518060400160405280601081526020016f2830bcb6b2b73a283937b1b2b9b9b7b960811b815250604051806040016040528060018152602001603160f81b8152506100876001836101e160201b90919060201c565b610120526100968160026101e1565b61014052815160208084019190912060e052815190820120610100524660a05261012360e05161010051604080517f8b73c3c69bb8fe3d512ecc4cf759cc79239f7b179b0ffacaa9a75d522b39400f60208201529081019290925260608201524660808201523060a082015260009060c00160405160208183030381529060405280519060200120905090565b60805250503060c0526127108211156101835760405162461bcd60e51b815260206004820152601a60248201527f496e76616c696420726f79616c74792070657263656e7461676500000000000060448201526064015b60405180910390fd5b6003829055600480546001600160a01b0319166001600160a01b0383161790556101ae600033610214565b506101d97f408a36151f841709116a4e8aca4e0202874f7f54687dcb863b1ea4672dc9d8cf33610214565b505050610508565b60006020835110156101fd576101f6836102be565b905061020e565b8161020884826103d8565b5060ff90505b92915050565b6000828152602081815260408083206001600160a01b038516845290915281205460ff166102b6576000838152602081815260408083206001600160a01b03861684529091529020805460ff1916600117905561026e3390565b6001600160a01b0316826001600160a01b0316847f2f8788117e7eff1d82e926ec794901d17c78024a50270940304540a733656f0d60405160405180910390a450600161020e565b50600061020e565b600080829050601f815111156102e9578260405163305a27a960e01b815260040161017a9190610496565b80516102f4826104e4565b179392505050565b6000806040838503121561030f57600080fd5b825160208401519092506001600160a01b038116811461032e57600080fd5b809150509250929050565b634e487b7160e01b600052604160045260246000fd5b600181811c9082168061036357607f821691505b60208210810361038357634e487b7160e01b600052602260045260246000fd5b50919050565b601f8211156103d357806000526020600020601f840160051c810160208510156103b05750805b601f840160051c820191505b818110156103d057600081556001016103bc565b50505b505050565b81516001600160401b038111156103f1576103f1610339565b610405816103ff845461034f565b84610389565b6020601f82116001811461043957600083156104215750848201515b600019600385901b1c1916600184901b1784556103d0565b600084815260208120601f198516915b828110156104695787850151825560209485019460019092019101610449565b50848210156104875786840151600019600387901b60f8161c191681555b50505050600190811b01905550565b602081526000825180602084015260005b818110156104c457602081860181015160408684010152016104a7565b506000604082850101526040601f19601f83011684010191505092915050565b805160208083015191908110156103835760001960209190910360031b1b16919050565b60805160a05160c05160e05161010051610120516101405161149f6105626000396000610b2001526000610aee01526000610c4a01526000610c2201526000610b7d01526000610ba701526000610bd1015261149f6000f3fe608060405234801561001057600080fd5b50600436106101165760003560e01c806384b0196e116100a25780639b931abf116100715780639b931abf1461025f578063a217fddf1461028d578063b646c19414610295578063d547741f146102a8578063fe93e0a0146102bb57600080fd5b806384b0196e146101fd5780638a71bb2d146102185780639075becf1461022157806391d148541461024c57600080fd5b806336568abe116100e957806336568abe1461019c5780634245962b146101af57806361ba27da146101c457806364913477146101d75780636cf4c88f146101ea57600080fd5b806301ffc9a71461011b5780630ff28b0c14610143578063248a9ca3146101645780632f2ff15d14610187575b600080fd5b61012e610129366004610fbb565b6102ce565b60405190151581526020015b60405180910390f35b610156610151366004610fec565b610305565b60405190815260200161013a565b610156610172366004610fec565b60009081526020819052604090206001015490565b61019a61019536600461101a565b610310565b005b61019a6101aa36600461101a565b61033b565b61015660008051602061144a83398151915281565b61019a6101d2366004610fec565b610373565b61019a6101e536600461104a565b6103db565b61019a6101f836600461104a565b610409565b610205610430565b60405161013a97969594939291906110ad565b61015660035481565b600454610234906001600160a01b031681565b6040516001600160a01b03909116815260200161013a565b61012e61025a36600461101a565b610476565b61012e61026d36600461115b565b805160208183018101805160058252928201919093012091525460ff1681565b610156600081565b61019a6102a336600461104a565b61049f565b61019a6102b636600461101a565b6104c2565b61019a6102c9366004611214565b6104e7565b60006001600160e01b03198216637965db0b60e01b14806102ff57506301ffc9a760e01b6001600160e01b03198316145b92915050565b60006102ff826109b0565b60008281526020819052604090206001015461032b816109dd565b61033583836109ea565b50505050565b6001600160a01b03811633146103645760405163334bd91960e11b815260040160405180910390fd5b61036e8282610a7c565b505050565b600061037e816109dd565b6127108211156103d55760405162461bcd60e51b815260206004820152601a60248201527f496e76616c696420726f79616c74792070657263656e7461676500000000000060448201526064015b60405180910390fd5b50600355565b60006103e6816109dd565b50600480546001600160a01b0319166001600160a01b0392909216919091179055565b6000610414816109dd565b61042c60008051602061144a833981519152836104c2565b5050565b600060608060008060006060610444610ae7565b61044c610b19565b60408051600080825260208201909252600f60f81b9b939a50919850469750309650945092509050565b6000918252602082815260408084206001600160a01b0393909316845291905290205460ff1690565b60006104aa816109dd565b61042c60008051602061144a83398151915283610310565b6000828152602081905260409020600101546104dd816109dd565b6103358383610a7c565b60056104f384806112c7565b604051610501929190611315565b9081526040519081900360200190205460ff16156105615760405162461bcd60e51b815260206004820152601960248201527f5061796d656e7420616c72656164792070726f6365737365640000000000000060448201526064016103cc565b60007f215577d9fdef70585a74801d83f819fa5707e424ce2c1da4d1e8487ecf3a68d161058e85806112c7565b60405161059c929190611315565b604051809103902085602001358660400160208101906105bc919061104a565b6105cc6080890160608a0161104a565b60408051602081019690965285019390935260608401919091526001600160a01b0390811660808401521660a082015260c0016040516020818303038152906040528051906020012090506000610622826109b0565b905060006106668286868080601f016020809104026020016040519081016040528093929190818152602001838380828437600092019190915250610b4692505050565b905061068060008051602061144a83398151915282610476565b6106cc5760405162461bcd60e51b815260206004820152601a60248201527f496e76616c696420617070726f766572207369676e617475726500000000000060448201526064016103cc565b600061271060035488602001356106e3919061133b565b6106ed9190611352565b905060006106ff8260208a0135611374565b90506001600160a01b0389166323b872dd61072060608b0160408c0161104a565b6004805460405160e085901b6001600160e01b03191681526001600160a01b0393841692810192909252919091166024820152604481018590526064016020604051808303816000875af115801561077c573d6000803e3d6000fd5b505050506040513d601f19601f820116820180604052508101906107a09190611387565b6107ec5760405162461bcd60e51b815260206004820152601d60248201527f455243323020726f79616c7479207472616e73666572206661696c656400000060448201526064016103cc565b6001600160a01b0389166323b872dd61080b60608b0160408c0161104a565b61081b60808c0160608d0161104a565b6040516001600160e01b031960e085901b1681526001600160a01b03928316600482015291166024820152604481018490526064016020604051808303816000875af115801561086f573d6000803e3d6000fd5b505050506040513d601f19601f820116820180604052508101906108939190611387565b6108eb5760405162461bcd60e51b8152602060048201526024808201527f4552433230207472616e7366657220746f2064657374696e6174696f6e2066616044820152631a5b195960e21b60648201526084016103cc565b600160056108f98a806112c7565b604051610907929190611315565b9081526040805191829003602001909120805492151560ff199093169290921790915561093a9060608a01908a0161104a565b6001600160a01b03908116908a167f7f308a618b5e1b09db055d62fa8ee5afe9d78d2a8dd739cb587b7b7b2092f16b60208b01356109788c806112c7565b8d606001602081019061098b919061104a565b8860405161099d9594939291906113a9565b60405180910390a3505050505050505050565b60006102ff6109bd610b70565b8360405161190160f01b8152600281019290925260228201526042902090565b6109e78133610c9b565b50565b60006109f68383610476565b610a74576000838152602081815260408083206001600160a01b03861684529091529020805460ff19166001179055610a2c3390565b6001600160a01b0316826001600160a01b0316847f2f8788117e7eff1d82e926ec794901d17c78024a50270940304540a733656f0d60405160405180910390a45060016102ff565b5060006102ff565b6000610a888383610476565b15610a74576000838152602081815260408083206001600160a01b0386168085529252808320805460ff1916905551339286917ff6391f5c32d9c69d2a47ea670b442974b53935d1edc7fd64eb21e047a839171b9190a45060016102ff565b6060610b147f00000000000000000000000000000000000000000000000000000000000000006001610cd4565b905090565b6060610b147f00000000000000000000000000000000000000000000000000000000000000006002610cd4565b600080600080610b568686610d7f565b925092509250610b668282610dcc565b5090949350505050565b6000306001600160a01b037f000000000000000000000000000000000000000000000000000000000000000016148015610bc957507f000000000000000000000000000000000000000000000000000000000000000046145b15610bf357507f000000000000000000000000000000000000000000000000000000000000000090565b610b14604080517f8b73c3c69bb8fe3d512ecc4cf759cc79239f7b179b0ffacaa9a75d522b39400f60208201527f0000000000000000000000000000000000000000000000000000000000000000918101919091527f000000000000000000000000000000000000000000000000000000000000000060608201524660808201523060a082015260009060c00160405160208183030381529060405280519060200120905090565b610ca58282610476565b61042c5760405163e2517d3f60e01b81526001600160a01b0382166004820152602481018390526044016103cc565b606060ff8314610cee57610ce783610e85565b90506102ff565b818054610cfa906113f9565b80601f0160208091040260200160405190810160405280929190818152602001828054610d26906113f9565b8015610d735780601f10610d4857610100808354040283529160200191610d73565b820191906000526020600020905b815481529060010190602001808311610d5657829003601f168201915b505050505090506102ff565b60008060008351604103610db95760208401516040850151606086015160001a610dab88828585610ec4565b955095509550505050610dc5565b50508151600091506002905b9250925092565b6000826003811115610de057610de0611433565b03610de9575050565b6001826003811115610dfd57610dfd611433565b03610e1b5760405163f645eedf60e01b815260040160405180910390fd5b6002826003811115610e2f57610e2f611433565b03610e505760405163fce698f760e01b8152600481018290526024016103cc565b6003826003811115610e6457610e64611433565b0361042c576040516335e2f38360e21b8152600481018290526024016103cc565b60606000610e9283610f93565b604080516020808252818301909252919250600091906020820181803683375050509182525060208101929092525090565b600080807f7fffffffffffffffffffffffffffffff5d576e7357a4501ddfe92f46681b20a0841115610eff5750600091506003905082610f89565b604080516000808252602082018084528a905260ff891692820192909252606081018790526080810186905260019060a0016020604051602081039080840390855afa158015610f53573d6000803e3d6000fd5b5050604051601f1901519150506001600160a01b038116610f7f57506000925060019150829050610f89565b9250600091508190505b9450945094915050565b600060ff8216601f8111156102ff57604051632cd44ac360e21b815260040160405180910390fd5b600060208284031215610fcd57600080fd5b81356001600160e01b031981168114610fe557600080fd5b9392505050565b600060208284031215610ffe57600080fd5b5035919050565b6001600160a01b03811681146109e757600080fd5b6000806040838503121561102d57600080fd5b82359150602083013561103f81611005565b809150509250929050565b60006020828403121561105c57600080fd5b8135610fe581611005565b6000815180845260005b8181101561108d57602081850181015186830182015201611071565b506000602082860101526020601f19601f83011685010191505092915050565b60ff60f81b8816815260e0602082015260006110cc60e0830189611067565b82810360408401526110de8189611067565b606084018890526001600160a01b038716608085015260a0840186905283810360c08501528451808252602080870193509091019060005b81811015611134578351835260209384019390920191600101611116565b50909b9a5050505050505050505050565b634e487b7160e01b600052604160045260246000fd5b60006020828403121561116d57600080fd5b813567ffffffffffffffff81111561118457600080fd5b8201601f8101841361119557600080fd5b803567ffffffffffffffff8111156111af576111af611145565b604051601f8201601f19908116603f0116810167ffffffffffffffff811182821017156111de576111de611145565b6040528181528282016020018610156111f657600080fd5b81602084016020830137600091810160200191909152949350505050565b6000806000806060858703121561122a57600080fd5b843561123581611005565b9350602085013567ffffffffffffffff81111561125157600080fd5b85016080818803121561126357600080fd5b9250604085013567ffffffffffffffff81111561127f57600080fd5b8501601f8101871361129057600080fd5b803567ffffffffffffffff8111156112a757600080fd5b8760208284010111156112b957600080fd5b949793965060200194505050565b6000808335601e198436030181126112de57600080fd5b83018035915067ffffffffffffffff8211156112f957600080fd5b60200191503681900382131561130e57600080fd5b9250929050565b8183823760009101908152919050565b634e487b7160e01b600052601160045260246000fd5b80820281158282048414176102ff576102ff611325565b60008261136f57634e487b7160e01b600052601260045260246000fd5b500490565b818103818111156102ff576102ff611325565b60006020828403121561139957600080fd5b81518015158114610fe557600080fd5b85815260806020820152836080820152838560a0830137600060a08583018101919091526001600160a01b039390931660408201526060810191909152601f909201601f19169091010192915050565b600181811c9082168061140d57607f821691505b60208210810361142d57634e487b7160e01b600052602260045260246000fd5b50919050565b634e487b7160e01b600052602160045260246000fdfe408a36151f841709116a4e8aca4e0202874f7f54687dcb863b1ea4672dc9d8cfa26469706673582212208e6092015dd4b01f80402b3fab16f0d52cee2d0b396afabcb23e9c9485c4e00764736f6c634300081b0033","linkReferences":{}},"methodIdentifiers":{"APPROVER_ROLE()":"4245962b","DEFAULT_ADMIN_ROLE()":"a217fddf","addApprover(address)":"b646c194","eip712Domain()":"84b0196e","getRoleAdmin(bytes32)":"248a9ca3","getTypedDataV4Hash(bytes32)":"0ff28b0c","grantRole(bytes32,address)":"2f2ff15d","hasRole(bytes32,address)":"91d14854","multisigWallet()":"9075becf","processedPayments(string)":"9b931abf","receiveERC20Payment(address,(string,uint256,address,address),bytes)":"fe93e0a0","removeApprover(address)":"6cf4c88f","renounceRole(bytes32,address)":"36568abe","revokeRole(bytes32,address)":"d547741f","royaltyPercentage()":"8a71bb2d","setMultisigWallet(address)":"64913477","setRoyaltyPercentage(uint256)":"61ba27da","supportsInterface(bytes4)":"01ffc9a7"},"id":43}